:060000000A128A11122809
:10000800FE00030E83120313A0000408A1000A08CF
:10001800A2007F08A3000A128A11B62A0A128A11BE
:1000280015280A128A1156230A128A11FD00AE01F8
:10003800AF01B001B101FC0183010A128A11242821
:100048008316031387170713061481130A128A11DC
:1000580023230A128A110A128A113A230A128A11D0
:100068000A128A114E230A128A11003083120313CE
:100078002F023C3003192E02031C43284428392838
:10008800AE01AF010130A5000A128A11E7220A1257
:100098008A110A3083120313A4000030A5007C08DB
:1000A800AC00AD012C08A6002D08A7000A128A1181
:1000B8008E200A128A11831203132408303E0A1272
:1000C8008A1130230A128A110A3083120313A400FA
:1000D8000030A5007C08AC00AD012C08A6002D0856
:1000E800A7000A128A11B9210A128A11831203136E
:1000F8002408303E0A128A1130230A128A110A3063
:100108000A128A1130230A128A11FC0139280A12AC
:100118008A11122883120313A901A51F9428952870
:100128009C28A409A509A40A0319A50A0130A90055
:10013800A71F9F28A028A728A609A709A60A031968
:10014800A70A0130A906AA01AB012408250403194E
:10015800AE28AF28E4280130A800BB2801300310DE
:10016800A40DA50DFF3E031DB3280130A807A51F48
:10017800BE28BF28B22801300310AA0DAB0DFF3EE0
:10018800031DC02825082702031DCC2824082602A1
:10019800031CCF28D028D7282408A6022508031C2A
:1001A800A703A7022A1401300310A50CA40CFF3ED4
:1001B800031DD8280130A802031DE328E428BF281E
:1001C80029080319E828E928EE28AA09AB09AA0A88
:1001D8000319AB0A2B08A5002A08A4000800003060
:1001E8008312031306180130FB007D03031DFD284D
:1001F800FE2853297B08031D0229032953290230AD
:10020800FA004530F900A930F800F80B0929F90B74
:100218000929FA0B0929102983120313061815292D
:10022800162953290130FC072930F1000A128A11D6
:1002380007230A128A110A30F0000030F1007C0806
:10024800F800F9017808F2007908F3000A128A1117
:1002580056210A128A117008303E0A128A11442364
:100268000A128A110A30F0000030F1007C08F80008
:10027800F9017808F2007908F3000A128A111222AB
:100288000A128A117008303E0A128A1144230A128F
:100298008A110A300A128A1144230A128A117B0829
:1002A800FD000800F501F11F5A295B296229F009B0
:1002B800F109F00A0319F10A0130F500F31F652965
:1002C80066296D29F209F309F20A0319F30A0130C4
:1002D800F506F601F70170087104031974297529E8
:1002E800AA290130F400812901300310F00DF10D25
:1002F800FF3E031D79290130F407F11F8429852960
:10030800782901300310F60DF70DFF3E031D8629ED
:1003180071087302031D922970087202031C952943
:1003280096299D297008F2027108031CF303F30251
:10033800761401300310F10CF00CFF3E031D9E29CA
:100348000130F402031DA929AA2985297508031972
:10035800AE29AF29B429F609F709F60A0319F70AED
:100368007708F1007608F000080083120313A9014A
:10037800A71FBF29C029C729A609A709A60A0319C3
:10038800A70A0130A900A51FCA29CB29D029A40989
:10039800A509A40A0319A50A240825040319D529BF
:1003A800D629032A0130A800E22901300310A40D40
:1003B800A50DFF3E031DDA290130A807A51FE52971
:1003C800E629D92925082702031DEC292408260235
:1003D800031CEF29F029F6292408A6022508031C86
:1003E800A703A70201300310A50CA40CFF3E031DB0
:1003F800F7290130A802031D022A032AE629290841
:100408000319072A082A0D2AA609A709A60A031903
:10041800A70A2708A5002608A4000800F501F31F6D
:10042800162A172A1E2AF209F309F20A0319F30AEF
:100438000130F500F11F212A222A272AF009F109A3
:10044800F00A0319F10A7008710403192C2A2D2ADD
:100458005A2A0130F400392A01300310F00DF10D49
:10046800FF3E031D312A0130F407F11F3C2A3D2AC3
:10047800302A71087302031D432A70087202031C94
:10048800462A472A4D2A7008F2027108031CF30312
:10049800F30201300310F10CF00CFF3E031D4E2A4D
:1004A8000130F402031D592A5A2A3D2A75080319F6
:1004B8005E2A5F2A642AF209F309F20A0319F30A89
:1004C8007308F1007208F000080002308A0004087E
:1004D800840A8207003442347534743474346F34B7
:1004E8006E34203450347234653473347334653464
:1004F8007334203469346E34203474346834653489
:1005080020346C34613473347434203436343034E9
:1005180020347334653463346F346E346434733424
:100528003A342034003442347534743474346F34BB
:100538006E34203450347234653473347334203458
:1005480044346534743465346334743465346434E1
:100558002E34203443346F3475346E3474343A3462
:10056800203400340C1CB92ABA2AD02A0C100130C5
:10057800B0070318B10A0030B1070930300631045A
:10058800031DC72AC82AD02AB001B1010130AE071D
:100598000318AF0A0030AF078B1CD32AD42ADA2AF3
:1005A8000A128A11F3200A128A118B10831203137C
:1005B8002308FF0022088A0021088400200E8300F7
:1005C800FE0E7E0E0900F82A250884000A128A11F8
:1005D80069220A128A110A128A1130230A128A1110
:1005E800013083120313A50783120313250884001F
:1005F8000A128A1169220A128A11003A031D052B70
:10060800062BE82A0800162B710884000A128A11A2
:1006180069220A128A110A128A1144230A128A11BB
:100628000130F107710884000A128A1169220A123E
:100638008A11003A031D212B222B082B0800203099
:1006480083160313980090308312031398001F3009
:10065800831603139900080083120313A4000C1EC9
:10066800362B372B332B240899000800313083129E
:1006780003139000831603130C140B178B17080031
:10068800F000831203130C1E4A2B4B2B452B7008CA
:10069800990008008B170B170B1683160313011309
:0606A8008B100800013474
:02400E007A3FF7
:00000001FF
